:100000000C9463000C948B000C948B000C94A6054C
:100010000C94A6050C94A6050C948B000C948B00F4
:100020000C948B000C948B000C948B000C948B0024
:100030000C948B000C9481050C948B000C948B0019
:100040000C9437050C948B000C9405050C94DF047C
:100050000C948B000C948B000C948B000C948B00F4
:100060000C948B000C948B000000000024002700EF
:100070002A0000000008000201000003040700003D
:1000800000000000000000000000230026002900FE
:1000900000000000250028002B00040404040404D0
:1000A0000404020202020202030303030303010227
:1000B00004081020408001020408102001020408F6
:1000C00010201E06D10811241FBECFEFD8E0DEBFDE
:1000D000CDBF11E0A0E0B1E0E4E9F2E102C005909B
:1000E0000D92AA3CB107D9F722E0AAECB1E001C019
:1000F0001D92A13FB207E1F710E0C2E6D0E004C0D4
:100100002197FE010E943709C136D107C9F70E9425
:10011000FF060C943D090C940000AF92BF92CF9261
:10012000DF92EF92FF920F931F93CF93DF936C01B7
:100130007B018B01040F151FEB015E01AE18BF0898
:10014000C017D10759F06991D601ED91FC9101904A
:10015000F081E02DC6010995892B79F7C501DF9162
:10016000CF911F910F91FF90EF90DF90CF90BF90B4
:10017000AF900895FC01538D448D252F30E0842FDE
:1001800090E0821B930B541710F0CF9608950197BF
:100190000895FC01918D828D981761F0A28DAE0FAC
:1001A000BF2FB11D5D968C91928D9F5F9F73928F33
:1001B00090E008958FEF9FEF0895FC01918D828D5F
:1001C000981731F0828DE80FF11D858D90E008952C
:1001D0008FEF9FEF0895FC01918D228D892F90E084
:1001E000805C9F4F821B91098F73992708958DE141
:1001F00092E00E94EB0021E0892B09F420E0822F9D
:10020000089580E090E0892B29F00E94F700811189
:100210000C9400000895FC01A48DA80FB92FB11D06
:10022000A35ABF4F2C91848D90E001968F7399272C
:10023000848FA689B7892C93A089B1898C9183700A
:1002400080648C93938D848D981306C00288F38903
:10025000E02D80818F7D80830895EF92FF920F9330
:100260001F93CF93DF93EC0181E0888F9B8D8C8D62
:1002700098131AC0E889F989808185FF15C09FB756
:10028000F894EE89FF896083E889F9898081837019
:10029000806480839FBF81E090E0DF91CF911F91C8
:1002A0000F91FF90EF900895F62E0B8D10E00F5FE9
:1002B0001F4F0F731127E02E8C8D8E110CC00FB6BF
:1002C00007FCFACFE889F989808185FFF5CFCE0157
:1002D0000E940B01F1CFEB8DEC0FFD2FF11DE35AC6
:1002E000FF4FF0829FB7F8940B8FEA89FB898081DA
:1002F0008062CFCFCF93DF93EC01888D8823B9F054
:10030000AA89BB89E889F9898C9185FD03C0808120
:1003100086FD0DC00FB607FCF7CF8C9185FFF2CF9D
:10032000808185FFEDCFCE010E940B01E9CFDF91E7
:10033000CF91089590E0FC01EE58FF4F2491FC010D
:10034000E255FF4F3491FC01E656FF4FE491EE2356
:10035000C9F0222339F0233001F1A8F4213019F13A
:10036000223029F1F0E0EE0FFF1FE057FF4FA5917B
:10037000B4918FB7F894EC91611126C030953E236B
:100380003C938FBF08952730A9F02830C9F024305E
:1003900049F7809180008F7D03C0809180008F7726
:1003A00080938000DFCF84B58F7784BDDBCF84B5A9
:1003B0008F7DFBCF8091B0008F778093B000D2CF3C
:1003C0008091B0008F7DF9CF3E2BDACFCF93DF93B2
:1003D00090E0FC01E255FF4F249186569F4FFC01AF
:1003E00084918823D1F090E0880F991FFC01E8598F
:1003F000FF4FA591B491FC01E057FF4FC591D491F7
:1004000061110EC09FB7F8948C91E22FE0958E2376
:100410008C932881E223E8839FBFDF91CF910895D9
:100420008FB7F894EC91E22BEC938FBFF6CF8E5000
:10043000806480937C0080917A00806480937A004D
:1004400080917A0086FDFCCF8091780090917900B0
:1004500008953FB7F8948091130290911402A091EF
:100460001502B091160226B5A89B05C02F3F19F0C2
:100470000196A11DB11D3FBFBA2FA92F982F882724
:10048000BC01CD01620F711D811D911D42E0660FFF
:10049000771F881F991F4A95D1F708958F929F92D1
:1004A000AF92BF92CF92DF92EF92FF924B015C012D
:1004B0000E9429026B017C010E9429026C197D09AE
:1004C0008E099F09683E734081059105A8F321E0DC
:1004D000821A9108A108B10888EEC80E83E0D81EE0
:1004E000E11CF11C81149104A104B10429F7FF90CF
:1004F000EF90DF90CF90BF90AF909F908F90089536
:10050000089520910C0230910D022817390771F4DB
:1005100090910B0280910A02981741F0E0910B0232
:10052000F0E0E653FE4F808190E008958FEF9FEF5B
:1005300008950895EF92FF920F931F93CF93DF9347
:10054000DC015C96ED90FC905D97E114F10479F488
:1005500081E090E013969C938E93129790E080E058
:10056000DF91CF911F910F91FF90EF9008955196D9
:10057000ED91FC91529750968C915097982F9095B1
:100580000FB75E962C915E97122F127021FD609529
:10059000F8942081112319F1282B2083E70121975A
:1005A000F1F728E0462F50E0308160FF1AC0382B69
:1005B0003083E7012197F1F7BA01759567952150CE
:1005C00089F7112381F08081892380830FBF5C9696
:1005D0008D919C910197F1F781E090E0C1CF2923A3
:1005E000DCCF3923E5CF9081892BEFCF20910C020E
:1005F00030910D022817390771F480910A02209179
:100600000B0290E0805C9F4F821B910960E470E0D8
:100610000E940109089590E080E0089520910C0265
:1006200030910D0228173907B9F490910B0280918F
:100630000A02981789F0E0910B02F0E0E653FE4FB2
:10064000808120910B0230E02F5F3F4F2F733327C3
:1006500020930B0290E008958FEF9FEF089590E0B4
:1006600080E00895CF93DF93EC0160E08E810E94DB
:100670009A0161E08E810E949A0160E08E810E9461
:100680009A018BE891E00197F1F7DF91CF910895FE
:10069000CF92DF92EF92FF920F931F93CF93DF934E
:1006A0006C017C0187E0E80EF11CD0E0C0E0062F71
:1006B00010E0B8010C2E02C0759567950A94E2F718
:1006C0006170F70181917F010E949A012196C430E7
:1006D000D10579F7C601DF91CF911F910F91FF905E
:1006E000EF90DF90CF900C943203CF92DF92EF9295
:1006F000FF920F931F93CF93DF93EC01F62E642F9D
:100700008C810E949A018D818F3F19F060E00E94D8
:100710009A010F2D10E08F8584FF25C06E0187E0C0
:10072000C80ED11CF12CE12CB8010E2C02C075951D
:1007300067950A94E2F76170F60181916F010E945A
:100740009A01FFEFEF1AFF0A88E0E816F10461F75B
:10075000CE01DF91CF911F910F91FF90EF90DF902D
:10076000CF900C943203B80184E0759567958A9513
:10077000E1F7CE010E9448036F2DCE01DF91CF91AA
:100780001F910F91FF90EF90DF90CF900C94480352
:1007900040E0682F89ED92E00C947503CF93DF93CE
:1007A000823029F49091E80298609093E802809357
:1007B000EC021092ED0280E48093EE0280E18093DF
:1007C000EF0280E58093F00261E08091DD020E94FB
:1007D000E6018091DE028F3F19F061E00E94E601A0
:1007E00061E08091DF020E94E601C9EDD2E09E0146
:1007F000295D32408091E80284FD0BC084E090E0E6
:1008000021962817390744F461E08E810E94E601A1
:10081000EECF88E090E0F4CF8BE39DE00197F1F715
:1008200060E08091DD020E949A0160E08091DF0229
:100830000E949A018091DE028F3F19F060E00E94D1
:100840009A018091E80284FD39C063E089ED92E06D
:100850000E944803CBE4D6E4CE010197F1F763E0B0
:1008600089ED92E00E9448032197F1F763E089ED5A
:1008700092E00E94480383E592E00197F1F762E07D
:1008800089ED92E00E9448038091E80280620E9414
:10089000C80384E08093E9028CE00E94C80381E0F1
:1008A0000E94C8038BE39FE10197F1F782E08093F8
:1008B000EA0286E0DF91CF910C94C80380620E9427
:1008C000C8038BE496E40197F1F78091E802806217
:1008D0000E94C80383E592E00197F1F78091E80256
:1008E00080620E94C803D0CF9091EC02891710F06B
:1008F0008FEF890FE82FF0E0E752FD4F8489806881
:100900000C94C80341E00E94750381E090E00895D3
:10091000CF92DF92EF92FF920F931F93CF93DF93CB
:10092000CDB7DEB7A1970FB6F894DEBF0FBECDBF2F
:100930009C0150E040E019A28E010F5D1F4F8AE03C
:10094000C82ED12CE12CF12CCA01B901A7019601C6
:100950000E941509605DF80162938F012115310530
:100960004105510589F790E080E0309761F00190F2
:100970000020E9F73197AF01401B510BB80189ED19
:1009800092E00E948D00A1960FB6F894DEBF0FBED4
:10099000CDBFDF91CF911F910F91FF90EF90DF902E
:1009A000CF900895FC0101900020E9F73197AF0145
:1009B000481B590BBC0189ED92E00C948D001F92ED
:1009C0000F920FB60F9211242F933F934F935F9383
:1009D0006F937F938F939F93AF93BF93EF93FF9307
:1009E0008DE192E00E940B01FF91EF91BF91AF91D9
:1009F0009F918F917F916F915F914F913F912F9137
:100A00000F900FBE0F901F9018951F920F920FB668
:100A10000F9211242F938F939F93EF93FF93E09165
:100A20002D02F0912E028081E0913302F091340288
:100A300082FD1BC09081809136028F5F8F73209161
:100A40003702821741F0E0913602F0E0E35EFD4F9D
:100A5000958F80933602FF91EF919F918F912F9107
:100A60000F900FBE0F901F9018958081F4CF1F92AA
:100A70000F920FB60F9211242F933F938F939F9352
:100A8000AF93BF9380910F0290911002A091110239
:100A9000B091120230910E0223E0230F2D3758F54A
:100AA0000196A11DB11D20930E0280930F02909319
:100AB0001002A0931102B093120280911302909140
:100AC0001402A0911502B09116020196A11DB11D4C
:100AD0008093130290931402A0931502B093160210
:100AE000BF91AF919F918F913F912F910F900FBE2A
:100AF0000F901F90189526E8230F0296A11DB11D97
:100B0000D2CF1F920F920FB60F9211242F933F93C3
:100B10004F935F936F937F938F939F93AF93BF9305
:100B2000EF93FF93F0E0E0E00995FF91EF91BF9123
:100B3000AF919F918F917F916F915F914F913F9175
:100B40002F910F900FBE0F901F9018951F920F922C
:100B50000FB60F9211242F933F934F935F936F9390
:100B60007F938F939F93AF93BF93EF93FF93E09106
:100B70000C02F0910D02309749F0A685B785858566
:100B8000968D91FF14C09C918923A1F4FF91EF9160
:100B9000BF91AF919F918F917F916F915F914F9195
:100BA0003F912F910F900FBE0F901F9018959C9121
:100BB000892361F7A389B4899C91858980958923CC
:100BC0008C93868997890197F1F7608D718DA68541
:100BD000B785558538E020E0CB010197F1F7822FEA
:100BE00090E095958795282F4C91452309F0206832
:100BF000315091F7868D81FD209580910A0290E019
:100C000001968F73992730910B02381799F0A091B4
:100C10000A02B0E0A653BE4F2C9380930A02828D45
:100C2000938D0197F1F7A389B4898C919589892BCC
:100C30008C93ACCF868D8160868FF1CFCF92DF927F
:100C4000EF92FF921092200210921F0298EEC92E8E
:100C500093E0D92EE12CF12CC0922102D0922202F5
:100C6000E0922302F092240284E091E090931E022D
:100C700080931D0285EC90E090932A0280932902D4
:100C800084EC90E090932C0280932B0280EC90E017
:100C900090932E0280932D0281EC90E0909330028D
:100CA00080932F0282EC90E0909332028093310285
:100CB00086EC90E0909334028093330210923602D7
:100CC0001092370210923802109239021092DC0210
:100CD0001092DB0288E291E09093DA028093D902CD
:100CE00087E08093DD028FEF8093DE0286E08093C1
:100CF000DF0285E08093E00284E08093E10283E0FC
:100D00008093E20282E08093E3021092E402109268
:100D1000E5021092E6021092E7021092E80281E0EA
:100D20000E94CE031092BD021092BC02C092BE027D
:100D3000D092BF02E092C002F092C10286E191E03F
:100D40009093BB028093BA021092D1021092D0020B
:100D50001092D3021092D2021092D5021092D402B5
:100D60001092D7021092D6026091D8026E7F6D7FEA
:100D70006093D8026695617081E0682789E00E94DF
:100D80009A0161E089E00E94E601E7EBF0E0E4917E
:100D9000E093CA02E3EAF0E0E491F0E0EE0FFF1F17
:100DA000E057FF4F859194919093CC028093CB02B2
:100DB00060E088E00E94E6018091D80281FD04C0D5
:100DC00061E088E00E949A0188E08093C602E6EB29
:100DD000F0E0E491E093C702E2EAF0E0E491F0E0B1
:100DE000EE0FFF1FEA57FF4F859194919093C90230
:100DF0008093C802FF90EF90DF90CF900895789491
:100E000084B5826084BD84B5816084BD85B582600F
:100E100085BD85B5816085BD80916E0081608093C0
:100E20006E00109281008091810082608093810029
:100E30008091810081608093810080918000816039
:100E4000809380008091B10084608093B100809194
:100E5000B00081608093B00080917A0084608093BC
:100E60007A0080917A00826080937A0080917A0083
:100E7000816080937A0080917A00806880937A0004
:100E80001092C100E0912D02F0912E0282E0808349
:100E9000E0912902F0912A021082E0912B02F09158
:100EA0002C028FEC808310923502E0913102F09198
:100EB000320286E08083E0912F02F091300280813F
:100EC00080618083E0912F02F09130028081886000
:100ED0008083E0912F02F0913002808180688083CE
:100EE000E0912F02F091300280818F7D808361E05C
:100EF0008DE00E94E60160E08DE00E949A0161E0D1
:100F00008CE00E94E60160E08CE00E949A0161E0C2
:100F10008BE00E94E60160E08BE00E949A0182E093
:100F20000E94CE0380E00E94740480E391E00E945E
:100F3000D20468EE73E080E090E00E944E0281E00F
:100F40000E94C8038BE39FE10197F1F7C4E6D0E06C
:100F50000AE010E040E0E42E40E0F42E8FE00E9432
:100F600017026C0190931C0280931B028EE00E947A
:100F70001702880F991F90931A0280931902D69432
:100F8000C794D0921802C092170281E00E947404A4
:100F900080E491E00E94D20480911702909118029F
:100FA000BE010E94ED08CB010E94880480911702C7
:100FB00090911802BE010E94ED08B8010E94ED0850
:100FC000CB010E9488048091170290911802BE0103
:100FD0000E94ED08B8010E94ED080E94880483E495
:100FE00091E00E94D2048091190290911A02BE01F0
:100FF0000E94ED08CB010E94880480911902909113
:101000001A02BE010E94ED08B8010E94ED08CB0152
:101010000E94880487E491E00E94D2048091190222
:1010200090911A02BE010E94ED08B8010E94ED08DD
:101030000E948804809117029091180282339105D2
:1010400008F07CC060E08DE00E949A0180E00E9480
:1010500074046AEF70E080E090E00E944E0289E440
:1010600091E00E94D2048091190290911A02835754
:10107000914081389105C8F460E08BE00E949A01AC
:1010800061E08CE00E949A0161E08CE00E949A018C
:1010900080E00E9474046AEF70E080E090E00E94BB
:1010A0004E0282E791E00E94D20480911902909151
:1010B0001A02855F91408A309240A8F461E08BE08B
:1010C0000E949A0180E00E9474046AEF70E080E060
:1010D00090E00E944E0282E891E00E94D20460E01B
:1010E0008CE00E949A018091190290911A029C0151
:1010F0002250310922363105A8F561E08BE00E94CB
:101100009A0180E00E9474046AEF70E080E090E051
:101110000E944E0285E991E00E94D20460E08CE0DA
:101120000E949A01E114F10409F418CF0E94F7001B
:10113000882309F413CF0E94000010CF853F91400F
:1011400008F491CF61E08DE00E949A0180E00E9456
:1011500074046AEF70E080E090E00E944E0280E646
:1011600091E07FCF8B5F91098D369105D8F660E0D5
:101170008BE00E949A0160E08CE00E949A0180E07E
:101180000E94740487EA91E00E94D2046AEF70E042
:1011900080E090E00E944E0289EB91E00E94D20430
:1011A000C1CF86E191E09093BB028093BA02809117
:1011B0000C0290910D028A5B924071F4E091CD0295
:1011C000F091CE0290818091CF0280958923808317
:1011D00010920D0210920C020895AA1BBB1B51E144
:1011E00007C0AA1FBB1FA617B70710F0A61BB70B97
:1011F000881F991F5A95A9F780959095BC01CD013C
:10120000089597FB072E16F4009407D077FD09D0B8
:101210000E94ED0807FC05D03EF4909581959F4F04
:101220000895709561957F4F0895A1E21A2EAA1B2B
:10123000BB1BFD010DC0AA1FBB1FEE1FFF1FA21786
:10124000B307E407F50720F0A21BB30BE40BF50B83
:10125000661F771F881F991F1A9469F7609570950C
:10126000809590959B01AC01BD01CF010895EE0FD3
:10127000FF1F0590F491E02D099410E0C2E6D0E044
:1012800004C0FE010E9437092196C336D107C9F771
:04129000F894FFCF00
:10129400000000002D018D00BA007A01EB00C900A6
:1012A400DD00000000009A028D002F039902F6026F
:1012B4000E0381020000000082048D002F038002CF
:1012C400484F4D45204155544F4D4154494F4E00D0
:1012D4004C3A0020543A002E004C414D50204F46C9
:1012E40046202020202020202020202020202000F4
:1012F4004C414D50204F4E202020202020202020E3
:10130400200046414E204F4E202020202020202027
:10131400200054656D70657261747572652048496A
:10132400474820200054656D70657261747572655C
:10133400204C4F5720200054656D70206E6F726DE5
:10134400616C2020202020200046414E204F46463C
:0A135400202020202020202000008F
:00000001FF
